{
  "contractName": "ContestPoolFactory",
  "abi": [
    {
      "constant": true,
      "inputs": [],
      "name": "version",
      "outputs": [
        {
          "name": "",
          "type": "uint8"
        }
      ],
      "payable": false,
      "stateMutability": "view",
      "type": "function"
    },
    {
      "constant": true,
      "inputs": [
        {
          "name": "",
          "type": "bytes32"
        }
      ],
      "name": "definitions",
      "outputs": [
        {
          "name": "contestName",
          "type": "bytes32"
        },
        {
          "name": "startTime",
          "type": "uint256"
        },
        {
          "name": "endTime",
          "type": "uint256"
        },
        {
          "name": "graceTime",
          "type": "uint256"
        },
        {
          "name": "maxBalance",
          "type": "uint256"
        },
        {
          "name": "fee",
          "type": "uint256"
        },
        {
          "name": "exists",
          "type": "bool"
        },
        {
          "name": "ownerFee",
          "type": "uint256"
        },
        {
          "name": "managerFee",
          "type": "uint256"
        },
        {
          "name": "enabled",
          "type": "bool"
        }
      ],
      "payable": false,
      "stateMutability": "view",
      "type": "function"
    },
    {
      "constant": true,
      "inputs": [],
      "name": "bbStorage",
      "outputs": [
        {
          "name": "",
          "type": "address"
        }
      ],
      "payable": false,
      "stateMutability": "view",
      "type": "function"
    },
    {
      "inputs": [
        {
          "name": "_storageAddress",
          "type": "address"
        }
      ],
      "payable": false,
      "stateMutability": "nonpayable",
      "type": "constructor"
    },
    {
      "anonymous": false,
      "inputs": [
        {
          "indexed": true,
          "name": "contractAddress",
          "type": "address"
        },
        {
          "indexed": true,
          "name": "contestName",
          "type": "bytes32"
        },
        {
          "indexed": false,
          "name": "startTime",
          "type": "uint256"
        },
        {
          "indexed": false,
          "name": "endTime",
          "type": "uint256"
        },
        {
          "indexed": false,
          "name": "graceTime",
          "type": "uint256"
        },
        {
          "indexed": false,
          "name": "maxBalance",
          "type": "uint256"
        },
        {
          "indexed": false,
          "name": "fee",
          "type": "uint256"
        },
        {
          "indexed": false,
          "name": "managerFeePercentage",
          "type": "uint256"
        },
        {
          "indexed": false,
          "name": "ownerFeePercentage",
          "type": "uint256"
        },
        {
          "indexed": false,
          "name": "publishedAt",
          "type": "uint256"
        }
      ],
      "name": "ContestPoolDefinitionCreated",
      "type": "event"
    },
    {
      "anonymous": false,
      "inputs": [
        {
          "indexed": true,
          "name": "contractAddress",
          "type": "address"
        },
        {
          "indexed": true,
          "name": "contestName",
          "type": "bytes32"
        },
        {
          "indexed": true,
          "name": "manager",
          "type": "address"
        },
        {
          "indexed": false,
          "name": "contestPoolAddress",
          "type": "address"
        },
        {
          "indexed": false,
          "name": "name",
          "type": "bytes32"
        },
        {
          "indexed": false,
          "name": "amountPerPlayer",
          "type": "uint256"
        }
      ],
      "name": "ContestPoolCreated",
      "type": "event"
    },
    {
      "anonymous": false,
      "inputs": [
        {
          "indexed": true,
          "name": "contractAddress",
          "type": "address"
        },
        {
          "indexed": true,
          "name": "contestName",
          "type": "bytes32"
        },
        {
          "indexed": false,
          "name": "when",
          "type": "uint256"
        }
      ],
      "name": "ContestPoolDeleted",
      "type": "event"
    },
    {
      "anonymous": false,
      "inputs": [
        {
          "indexed": true,
          "name": "contractAddress",
          "type": "address"
        },
        {
          "indexed": true,
          "name": "contestName",
          "type": "bytes32"
        },
        {
          "indexed": false,
          "name": "when",
          "type": "uint256"
        }
      ],
      "name": "ContestPoolDisabled",
      "type": "event"
    },
    {
      "anonymous": false,
      "inputs": [
        {
          "indexed": true,
          "name": "contractAddress",
          "type": "address"
        },
        {
          "indexed": true,
          "name": "contestName",
          "type": "bytes32"
        },
        {
          "indexed": false,
          "name": "when",
          "type": "uint256"
        }
      ],
      "name": "ContestPoolEnabled",
      "type": "event"
    },
    {
      "constant": false,
      "inputs": [
        {
          "name": "_contestName",
          "type": "bytes32"
        },
        {
          "name": "_fee",
          "type": "uint256"
        },
        {
          "name": "_startTime",
          "type": "uint256"
        },
        {
          "name": "_endTime",
          "type": "uint256"
        },
        {
          "name": "_graceTime",
          "type": "uint256"
        },
        {
          "name": "_maxBalance",
          "type": "uint256"
        },
        {
          "name": "_managerFee",
          "type": "uint256"
        },
        {
          "name": "_ownerFee",
          "type": "uint256"
        }
      ],
      "name": "createContestPoolDefinition",
      "outputs": [],
      "payable": false,
      "stateMutability": "nonpayable",
      "type": "function"
    },
    {
      "constant": false,
      "inputs": [
        {
          "name": "_name",
          "type": "bytes32"
        },
        {
          "name": "_contestName",
          "type": "bytes32"
        },
        {
          "name": "_amountPerPlayer",
          "type": "uint256"
        }
      ],
      "name": "createContestPool",
      "outputs": [
        {
          "name": "_newContestPoolAddress",
          "type": "address"
        }
      ],
      "payable": true,
      "stateMutability": "payable",
      "type": "function"
    },
    {
      "constant": false,
      "inputs": [
        {
          "name": "_contestName",
          "type": "bytes32"
        }
      ],
      "name": "deleteContestPool",
      "outputs": [],
      "payable": false,
      "stateMutability": "nonpayable",
      "type": "function"
    },
    {
      "constant": false,
      "inputs": [
        {
          "name": "_contestName",
          "type": "bytes32"
        }
      ],
      "name": "disableContestPool",
      "outputs": [],
      "payable": false,
      "stateMutability": "nonpayable",
      "type": "function"
    },
    {
      "constant": false,
      "inputs": [
        {
          "name": "_contestName",
          "type": "bytes32"
        }
      ],
      "name": "enableContestPool",
      "outputs": [],
      "payable": false,
      "stateMutability": "nonpayable",
      "type": "function"
    },
    {
      "constant": false,
      "inputs": [],
      "name": "withdrawFee",
      "outputs": [],
      "payable": false,
      "stateMutability": "nonpayable",
      "type": "function"
    },
    {
      "constant": true,
      "inputs": [],
      "name": "getCurrentTimestamp",
      "outputs": [
        {
          "name": "",
          "type": "uint256"
        }
      ],
      "payable": false,
      "stateMutability": "view",
      "type": "function"
    }
  ],
  "bytecode": "0x606060405260008060016101000a81548173ffffffffffffffffffffffffffffffffffffffff021916908373ffffffffffffffffffffffffffffffffffffffff160217905550341561005057600080fd5b604051602080612621833981016040528080519060200190919050508080600060016101000a81548173ffffffffffffffffffffffffffffffffffffffff021916908373ffffffffffffffffffffffffffffffffffffffff1602179055505060016000806101000a81548160ff021916908360ff16021790555050612547806100da6000396000f300606060405260043610620000af576000357c0100000000000000000000000000000000000000000000000000000000900463ffffffff16806354fd4d5014620000b45780635e933d0614620000e657806366eb882814620001105780636c9230db14620001845780637266cc7114620001b0578063733e64b7146200023d578063af444c001462000295578063ddcefe6514620002bf578063e941fa7814620002e9578063feab09b81462000301575b600080fd5b3415620000c057600080fd5b620000ca6200036a565b604051808260ff1660ff16815260200191505060405180910390f35b3415620000f257600080fd5b6200010e6004808035600019169060200190919050506200037c565b005b620001426004808035600019169060200190919080356000191690602001909190803590602001909190505062000521565b604051808273ffffffffffffffffffffffffffffffffffffffff1673ffffffffffffffffffffffffffffffffffffffff16815260200191505060405180910390f35b34156200019057600080fd5b6200019a620007f6565b6040518082815260200191505060405180910390f35b3415620001bc57600080fd5b620001d8600480803560001916906020019091905050620007fe565b604051808b600019166000191681526020018a815260200189815260200188815260200187815260200186815260200185151515158152602001848152602001838152602001821515151581526020019a505050505050505050505060405180910390f35b34156200024957600080fd5b620002536200086c565b604051808273ffffffffffffffffffffffffffffffffffffffff1673ffffffffffffffffffffffffffffffffffffffff16815260200191505060405180910390f35b3415620002a157600080fd5b620002bd60048080356000191690602001909190505062000892565b005b3415620002cb57600080fd5b620002e760048080356000191690602001909190505062000a4c565b005b3415620002f557600080fd5b620002ff62000bf1565b005b34156200030d57600080fd5b6200036860048080356000191690602001909190803590602001909190803590602001909190803590602001909190803590602001909190803590602001909190803590602001909190803590602001909190505062000d5f565b005b6000809054906101000a900460ff1681565b60011515620003c16040805190810160405280600581526020017f6f776e65720000000000000000000000000000000000000000000000000000008152503362000ffd565b1515148062000414575060011515620004106040805190810160405280600581526020017f61646d696e0000000000000000000000000000000000000000000000000000008152503362000ffd565b1515145b15156200042057600080fd5b8060016000826000191660001916815260200190815260200160002060060160009054906101000a900460ff1615156200045957600080fd5b8160016000826000191660001916815260200190815260200160002060090160009054906101000a900460ff161515156200049357600080fd5b6001806000856000191660001916815260200190815260200160002060090160006101000a81548160ff02191690831515021790555082600019163073ffffffffffffffffffffffffffffffffffffffff167f9d34b6f03c006856fbbb46cc5d9cc45ca79f1f364c8fe3411c85f02e8ac5758c426040518082815260200191505060405180910390a3505050565b6000806000808560016000826000191660001916815260200190815260200160002060060160009054906101000a900460ff1615156200056057600080fd5b338073ffffffffffffffffffffffffffffffffffffffff166200058262001186565b73ffffffffffffffffffffffffffffffffffffffff1614151515620005a657600080fd5b8760016000826000191660001916815260200190815260200160002060090160009054906101000a900460ff161515620005df57600080fd5b886001600082600019166000191681526020019081526020016000206001015462000609620007f6565b1015156200061657600080fd5b6000600102600019168b60001916141515156200063257600080fd5b6000891115156200064257600080fd5b600160008b6000191660001916815260200190815260200160002096503487600501541415156200067257600080fd5b8887600401541115156200068557600080fd5b3395506200073187610140604051908101604052908160008201546000191660001916815260200160018201548152602001600282015481526020016003820154815260200160048201548152602001600582015481526020016006820160009054906101000a900460ff1615151515815260200160078201548152602001600882015481526020016009820160009054906101000a900460ff1615151515815250508c888c6200129a565b94508573ffffffffffffffffffffffffffffffffffffffff168760000154600019163073ffffffffffffffffffffffffffffffffffffffff167fafd497ced5bf45a991e9e595cb2579bfcabad260bc2f13a2b7ebbb1cb25bc0e3888f8e604051808473ffffffffffffffffffffffffffffffffffffffff1673ffffffffffffffffffffffffffffffffffffffff1681526020018360001916600019168152602001828152602001935050505060405180910390a4849750505050505050509392505050565b600042905090565b60016020528060005260406000206000915090508060000154908060010154908060020154908060030154908060040154908060050154908060060160009054906101000a900460ff16908060070154908060080154908060090160009054906101000a900460ff1690508a565b600060019054906101000a900473ffffffffffffffffffffffffffffffffffffffff1681565b60011515620008d76040805190810160405280600581526020017f6f776e65720000000000000000000000000000000000000000000000000000008152503362000ffd565b151514806200092a575060011515620009266040805190810160405280600581526020017f61646d696e0000000000000000000000000000000000000000000000000000008152503362000ffd565b1515145b15156200093657600080fd5b8060016000826000191660001916815260200190815260200160002060060160009054906101000a900460ff1615156200096f57600080fd5b600160008360001916600019168152602001908152602001600020600080820160009055600182016000905560028201600090556003820160009055600482016000905560058201600090556006820160006101000a81549060ff0219169055600782016000905560088201600090556009820160006101000a81549060ff0219169055505081600019163073ffffffffffffffffffffffffffffffffffffffff167fa24619fae393090947456785bcf0587256c455043fb58bff86c0a7bdaa8f1a0c426040518082815260200191505060405180910390a35050565b6001151562000a916040805190810160405280600581526020017f6f776e65720000000000000000000000000000000000000000000000000000008152503362000ffd565b1515148062000ae457506001151562000ae06040805190810160405280600581526020017f61646d696e0000000000000000000000000000000000000000000000000000008152503362000ffd565b1515145b151562000af057600080fd5b8060016000826000191660001916815260200190815260200160002060060160009054906101000a900460ff16151562000b2957600080fd5b8160016000826000191660001916815260200190815260200160002060090160009054906101000a900460ff16151562000b6257600080fd5b600060016000856000191660001916815260200190815260200160002060090160006101000a81548160ff02191690831515021790555082600019163073ffffffffffffffffffffffffffffffffffffffff167f381da22e6c949ddccf9148568f73898447ab6d433ab44f1c1b536c49231a3920426040518082815260200191505060405180910390a3505050565b6000806001151562000c396040805190810160405280600581526020017f6f776e65720000000000000000000000000000000000000000000000000000008152503362000ffd565b1515148062000c8c57506001151562000c886040805190810160405280600581526020017f61646d696e0000000000000000000000000000000000000000000000000000008152503362000ffd565b1515145b151562000c9857600080fd5b30915060008273ffffffffffffffffffffffffffffffffffffffff163111151562000cc257600080fd5b62000ccc620013c8565b90508073ffffffffffffffffffffffffffffffffffffffff1663d0e30db08373ffffffffffffffffffffffffffffffffffffffff16316040518263ffffffff167c01000000000000000000000000000000000000000000000000000000000281526004016000604051808303818588803b151562000d4957600080fd5b5af1151562000d5757600080fd5b505050505050565b62000d6962001510565b62000daa6040805190810160405280600581526020017f6f776e657200000000000000000000000000000000000000000000000000000081525033620013d9565b8860016000826000191660001916815260200190815260200160002060060160009054906101000a900460ff1615151562000de457600080fd5b6000600102600019168a600019161415151562000e0057600080fd5b6000881415151562000e1157600080fd5b6000871415151562000e2257600080fd5b6000861415151562000e3357600080fd5b6000851415151562000e4457600080fd5b868810151562000e5357600080fd5b610140604051908101604052808b6000191681526020018981526020018881526020018781526020018681526020018a815260200160011515815260200184815260200185815260200160011515815250915081600160008c60001916600019168152602001908152602001600020600082015181600001906000191690556020820151816001015560408201518160020155606082015181600301556080820151816004015560a0820151816005015560c08201518160060160006101000a81548160ff02191690831515021790555060e0820151816007015561010082015181600801556101208201518160090160006101000a81548160ff02191690831515021790555090505089600019163073ffffffffffffffffffffffffffffffffffffffff167f263843e0c51669996ebb27f26be7ac7983f22a31c68237cf8cea9870bf28d8178a8a8a8a8f8b8b62000fab620007f6565b604051808981526020018881526020018781526020018681526020018581526020018481526020018381526020018281526020019850505050505050505060405180910390a350505050505050505050565b60008060019054906101000a900473ffffffffffffffffffffffffffffffffffffffff1673ffffffffffffffffffffffffffffffffffffffff16637ae1cfca848460405180807f6163636573732e726f6c65000000000000000000000000000000000000000000815250600b0183805190602001908083835b6020831015156200109d578051825260208201915060208101905060208303925062001076565b6001836020036101000a0380198251168184511680821785525050505050509050018273ffffffffffffffffffffffffffffffffffffffff1673ffffffffffffffffffffffffffffffffffffffff166c010000000000000000000000000281526014019250505060405180910390206040518263ffffffff167c0100000000000000000000000000000000000000000000000000000000028152600401808260001916600019168152602001915050602060405180830381600087803b15156200116657600080fd5b5af115156200117457600080fd5b50505060405180519050905092915050565b60008060019054906101000a900473ffffffffffffffffffffffffffffffffffffffff1673ffffffffffffffffffffffffffffffffffffffff166321f8a72160405180807f636f6e74726163742e6e616d6500000000000000000000000000000000000000815250600d01807f6f776e6572000000000000000000000000000000000000000000000000000000815250600501905060405180910390206040518263ffffffff167c0100000000000000000000000000000000000000000000000000000000028152600401808260001916600019168152602001915050602060405180830381600087803b15156200127d57600080fd5b5af115156200128b57600080fd5b50505060405180519050905090565b60008060019054906101000a900473ffffffffffffffffffffffffffffffffffffffff1684848760000151886020015189604001518a606001518b60800151898d61010001518e60e00151620012ef6200156b565b808c73ffffffffffffffffffffffffffffffffffffffff1673ffffffffffffffffffffffffffffffffffffffff1681526020018b600019166000191681526020018a73ffffffffffffffffffffffffffffffffffffffff1673ffffffffffffffffffffffffffffffffffffffff16815260200189600019166000191681526020018881526020018781526020018681526020018581526020018481526020018381526020018281526020019b505050505050505050505050604051809103906000f0801515620013be57600080fd5b9050949350505050565b6000620013d4620013fc565b905090565b60011515620013e9838362000ffd565b1515141515620013f857600080fd5b5050565b60008060019054906101000a900473ffffffffffffffffffffffffffffffffffffffff1673ffffffffffffffffffffffffffffffffffffffff166321f8a72160405180807f636f6e74726163742e6e616d6500000000000000000000000000000000000000815250600d01807f62625661756c7400000000000000000000000000000000000000000000000000815250600701905060405180910390206040518263ffffffff167c0100000000000000000000000000000000000000000000000000000000028152600401808260001916600019168152602001915050602060405180830381600087803b1515620014f357600080fd5b5af115156200150157600080fd5b50505060405180519050905090565b6101406040519081016040528060008019168152602001600081526020016000815260200160008152602001600081526020016000815260200160001515815260200160008152602001600081526020016000151581525090565b604051610f9f806200157d83390190560060606040526000601260016101000a81548173ffffffffffffffffffffffffffffffffffffffff021916908373ffffffffffffffffffffffffffffffffffffffff160217905550341561005157600080fd5b60405161016080610f9f833981016040528080519060200190919080519060200190919080519060200190919080519060200190919080519060200190919080519060200190919080519060200190919080519060200190919080519060200190919080519060200190919080519060200190919050508a6040805190810160405280600f81526020017f636f6e74657374506f6f6c4261736500000000000000000000000000000000008152508c80601260016101000a81548173ffffffffffffffffffffffffffffffffffffffff021916908373ffffffffffffffffffffffffffffffffffffffff1602179055505080601390805190602001906101589291906101f2565b505050886000806101000a81548173ffffffffffffffffffffffffffffffffffffffff021916908373ffffffffffffffffffffffffffffffffffffffff16021790555089600181600019169055508760028160001916905550866003819055508560048190555084600581905550836006819055508260078190555080600981905550816008819055505050505050505050505050610297565b828054600181600116156101000203166002900490600052602060002090601f016020900481019282601f1061023357805160ff1916838001178555610261565b82800160010185558215610261579182015b82811115610260578251825591602001919060010190610245565b5b50905061026e9190610272565b5090565b61029491905b80821115610290576000816000905550600101610278565b5090565b90565b610cf9806102a66000396000f300606060405260043610610133576000357c0100000000000000000000000000000000000000000000000000000000900463ffffffff16806306fdde0314610240578063216340c31461027157806324a1dc8b1461029a5780633197cbb6146103285780634555d5c914610351578063481c6a751461037a57806354fd4d50146103cf5780635af05dcf146103fe5780635c60da1b1461042757806365a43b081461047c578063733e64b7146104a557806373ad468a146104fa57806378e9792514610523578063850fa7cb1461054c57806387fc5e06146105a85780639c7632fc14610636578063a487bcd81461065f578063cc3f2c3214610688578063d5b2a01a146106b1578063dc0b3564146106da578063e2982c2114610703578063ea17386514610754578063f97cb8821461077d575b60006101d860138054600181600116156101000203166002900480601f0160208091040260200160405190810160405280929190818152602001828054600181600116156101000203166002900480156101ce5780601f106101a3576101008083540402835291602001916101ce565b820191906000526020600020905b8154815290600101906020018083116101b157829003601f168201915b50505050506107ae565b905060008173ffffffffffffffffffffffffffffffffffffffff161415151561020057600080fd5b61023d816000368080601f0160208091040260200160405190810160405280939291908181526020018383808284378201915050505050506108f0565b50005b341561024b57600080fd5b610253610900565b60405180826000191660001916815260200191505060405180910390f35b341561027c57600080fd5b610284610906565b6040518082815260200191505060405180910390f35b34156102a557600080fd5b6102ad61090c565b6040518080602001828103825283818151815260200191508051906020019080838360005b838110156102ed5780820151818401526020810190506102d2565b50505050905090810190601f16801561031a5780820380516001836020036101000a031916815260200191505b509250505060405180910390f35b341561033357600080fd5b61033b6109b4565b6040518082815260200191505060405180910390f35b341561035c57600080fd5b6103646109ba565b6040518082815260200191505060405180910390f35b341561038557600080fd5b61038d6109c3565b604051808273ffffffffffffffffffffffffffffffffffffffff1673ffffffffffffffffffffffffffffffffffffffff16815260200191505060405180910390f35b34156103da57600080fd5b6103e26109e8565b604051808260ff1660ff16815260200191505060405180910390f35b341561040957600080fd5b6104116109fb565b6040518082815260200191505060405180910390f35b341561043257600080fd5b61043a610a01565b604051808273ffffffffffffffffffffffffffffffffffffffff1673ffffffffffffffffffffffffffffffffffffffff16815260200191505060405180910390f35b341561048757600080fd5b61048f610aab565b6040518082815260200191505060405180910390f35b34156104b057600080fd5b6104b8610ab1565b604051808273ffffffffffffffffffffffffffffffffffffffff1673ffffffffffffffffffffffffffffffffffffffff16815260200191505060405180910390f35b341561050557600080fd5b61050d610ad7565b6040518082815260200191505060405180910390f35b341561052e57600080fd5b610536610add565b6040518082815260200191505060405180910390f35b341561055757600080fd5b61058c600480803573ffffffffffffffffffffffffffffffffffffffff16906020019091908035906020019091905050610ae3565b604051808260ff1660ff16815260200191505060405180910390f35b34156105b357600080fd5b6105bb610b25565b6040518080602001828103825283818151815260200191508051906020019080838360005b838110156105fb5780820151818401526020810190506105e0565b50505050905090810190601f1680156106285780820380516001836020036101000a031916815260200191505b509250505060405180910390f35b341561064157600080fd5b610649610bc3565b6040518082815260200191505060405180910390f35b341561066a57600080fd5b610672610bc9565b6040518082815260200191505060405180910390f35b341561069357600080fd5b61069b610bd5565b6040518082815260200191505060405180910390f35b34156106bc57600080fd5b6106c4610bdb565b6040518082815260200191505060405180910390f35b34156106e557600080fd5b6106ed610be1565b6040518082815260200191505060405180910390f35b341561070e57600080fd5b61073a600480803573ffffffffffffffffffffffffffffffffffffffff16906020019091905050610be7565b604051808215151515815260200191505060405180910390f35b341561075f57600080fd5b610767610c07565b6040518082815260200191505060405180910390f35b341561078857600080fd5b610790610c0d565b60405180826000191660001916815260200191505060405180910390f35b6000601260019054906101000a900473ffffffffffffffffffffffffffffffffffffffff1673ffffffffffffffffffffffffffffffffffffffff166321f8a7218360405180807f636f6e74726163742e6e616d6500000000000000000000000000000000000000815250600d0182805190602001908083835b60208310151561084c5780518252602082019150602081019050602083039250610827565b6001836020036101000a03801982511681845116808217855250505050505090500191505060405180910390206040518263ffffffff167c0100000000000000000000000000000000000000000000000000000000028152600401808260001916600019168152602001915050602060405180830381600087803b15156108d257600080fd5b5af115156108df57600080fd5b505050604051805190509050919050565b6108fc82826000610c13565b5050565b60015481565b600d5481565b610914610cb9565b60138054600181600116156101000203166002900480601f0160208091040260200160405190810160405280929190818152602001828054600181600116156101000203166002900480156109aa5780601f1061097f576101008083540402835291602001916109aa565b820191906000526020600020905b81548152906001019060200180831161098d57829003601f168201915b5050505050905090565b60045481565b60006002905090565b6000809054906101000a900473ffffffffffffffffffffffffffffffffffffffff1681565b601260009054906101000a900460ff1681565b60055481565b6000610aa660138054600181600116156101000203166002900480601f016020809104026020016040519081016040528092919081815260200182805460018160011615610100020316600290048015610a9c5780601f10610a7157610100808354040283529160200191610a9c565b820191906000526020600020905b815481529060010190602001808311610a7f57829003601f168201915b50505050506107ae565b905090565b60075481565b601260019054906101000a900473ffffffffffffffffffffffffffffffffffffffff1681565b60065481565b60035481565b600e60205281600052604060002081815481101515610afe57fe5b9060005260206000209060209182820401919006915091509054906101000a900460ff1681565b60138054600181600116156101000203166002900480601f016020809104026020016040519081016040528092919081815260200182805460018160011615610100020316600290048015610bbb5780601f10610b9057610100808354040283529160200191610bbb565b820191906000526020600020905b815481529060010190602001808311610b9e57829003601f168201915b505050505081565b60085481565b600f8060010154905081565b600b5481565b60095481565b600c5481565b60116020528060005260406000206000915054906101000a900460ff1681565b600a5481565b60025481565b600080610c1f85610c67565b1515610c2a57600080fd5b600080855160208701886127105a03f490503d9150828210151515610c4e57600080fd5b604051826000823e8160008114610c63578382f35b8382fd5b600080600073ffffffffffffffffffffffffffffffffffffffff168373ffffffffffffffffffffffffffffffffffffffff161415610ca85760009150610cb3565b823b90506000811191505b50919050565b6020604051908101604052806000815250905600a165627a7a723058208746487d3805438909d29070e1e64b802485a12ae6b332cc282485e68a059cb10029a165627a7a72305820497405118075984c51a40689c4e13d8801c4a23d55854722deb5c1dd8efedcea0029",
  "source": "pragma solidity 0.4.21;\r\n\r\nimport \"./ContestPoolUpgradable.sol\";\r\nimport \"./interface/BbStorageInterface.sol\";\r\nimport \"./interface/BbVaultInterface.sol\";\r\nimport \"./BbBase.sol\";\r\n\r\n/*\r\n * @title TODO Add comments.\r\n *\r\n * @author Douglas Molina <doug.molina@bitbrackets.io>\r\n * @author Guillermo Salazar <guillermo@bitbrackets.io>\r\n * @author Daniel Tutila <daniel@bitbrackets.io>\r\n */\r\ncontract ContestPoolFactory is BbBase {\r\n\r\n     /*** events ***************/\r\n    event ContestPoolDefinitionCreated (\r\n        address indexed contractAddress,\r\n        bytes32 indexed contestName,\r\n        uint startTime,\r\n        uint endTime,\r\n        uint graceTime,\r\n        uint maxBalance,\r\n        uint fee,\r\n        uint managerFeePercentage,\r\n        uint ownerFeePercentage,\r\n        uint publishedAt\r\n    );\r\n    \r\n    event ContestPoolCreated (\r\n        address indexed contractAddress,\r\n        bytes32 indexed contestName,\r\n        address indexed manager,\r\n        address contestPoolAddress,\r\n        bytes32 name,\r\n        uint amountPerPlayer\r\n    );\r\n\r\n    event ContestPoolDeleted (\r\n        address indexed contractAddress,\r\n        bytes32 indexed contestName,\r\n        uint when\r\n    );\r\n\r\n    event ContestPoolDisabled (\r\n        address indexed contractAddress,\r\n        bytes32 indexed contestName,\r\n        uint when\r\n    );\r\n\r\n    event ContestPoolEnabled (\r\n        address indexed contractAddress,\r\n        bytes32 indexed contestName,\r\n        uint when\r\n    );\r\n\r\n    /**** Structs ***********/\r\n\r\n    struct ContestPoolDefinition {\r\n        bytes32 contestName;\r\n        uint startTime;\r\n        uint endTime;\r\n        uint graceTime;\r\n        uint maxBalance;\r\n        uint fee;\r\n        bool exists;\r\n        uint ownerFee;\r\n        uint managerFee;\r\n        bool enabled;\r\n    }\r\n\r\n    /**** Properties ***********/\r\n\r\n    mapping(bytes32 => ContestPoolDefinition) public definitions;\r\n\r\n    /*** Modifiers ***************/\r\n\r\n    modifier isEnabled(bytes32 _contestName) {\r\n        require(definitions[_contestName].enabled);\r\n        _;\r\n    }\r\n\r\n    modifier isDisabled(bytes32 _contestName) {\r\n        require(!definitions[_contestName].enabled);\r\n        _;\r\n    }\r\n\r\n    modifier isNew(bytes32 _contestName) {\r\n        require(!definitions[_contestName].exists);\r\n        _;\r\n    }\r\n\r\n    modifier exists(bytes32 _contestName) {\r\n        require(definitions[_contestName].exists);\r\n        _;\r\n    }\r\n\r\n    modifier isNotOwner(address _address) {\r\n        require(getOwner() != _address);\r\n        _;\r\n    }\r\n\r\n    modifier isActive(bytes32 _contestName) {\r\n        require(getCurrentTimestamp() < definitions[_contestName].startTime);\r\n        _;\r\n    }\r\n\r\n    /**** methods ***********/\r\n\r\n\r\n    function ContestPoolFactory(address _storageAddress) public BbBase(_storageAddress) {\r\n        // set version\r\n        version = 1;\r\n    }\r\n\r\n    function createContestPoolDefinition(\r\n        bytes32 _contestName, \r\n        uint _fee,\r\n        uint _startTime, \r\n        uint _endTime, \r\n        uint _graceTime, \r\n        uint _maxBalance,\r\n        uint _managerFee,\r\n        uint _ownerFee) \r\n    onlyOwner isNew(_contestName) public \r\n    {\r\n        require(_contestName != bytes32(0x0));\r\n        require(_startTime != 0);\r\n        require(_endTime != 0);\r\n        require(_graceTime != 0);\r\n        require(_maxBalance != 0);\r\n        require(_startTime < _endTime);\r\n\r\n        ContestPoolDefinition memory newDefinition = ContestPoolDefinition({\r\n            contestName: _contestName,\r\n            startTime: _startTime,\r\n            endTime: _endTime,\r\n            graceTime: _graceTime,\r\n            maxBalance: _maxBalance,\r\n            fee: _fee,\r\n            exists: true,\r\n            managerFee: _managerFee,\r\n            ownerFee: _ownerFee,\r\n            enabled: true\r\n        });\r\n        definitions[_contestName] = newDefinition;\r\n        emit ContestPoolDefinitionCreated (\r\n            address(this),\r\n            _contestName, \r\n            _startTime, \r\n            _endTime, \r\n            _graceTime,\r\n            _maxBalance,\r\n            _fee,\r\n            _managerFee,\r\n            _ownerFee,\r\n            getCurrentTimestamp()\r\n        );\r\n    }\r\n\r\n    function createContestPoolInstance(ContestPoolDefinition _definition, bytes32 _name, address _manager, uint _amountPerPlayer) internal returns (address _newContestPoolAddress) {\r\n        return new ContestPoolUpgradable(\r\n            address(bbStorage),\r\n            _name,\r\n            _manager,\r\n            _definition.contestName,\r\n            _definition.startTime,\r\n            _definition.endTime,\r\n            _definition.graceTime,\r\n            _definition.maxBalance,\r\n            _amountPerPlayer,\r\n            _definition.managerFee,\r\n            _definition.ownerFee\r\n        );\r\n    }\r\n        \r\n    function createContestPool(bytes32 _name, bytes32 _contestName, uint _amountPerPlayer)\r\n        public payable exists(_contestName) isNotOwner(msg.sender) isEnabled(_contestName) isActive(_contestName) returns (address _newContestPoolAddress) {\r\n        require(_name != bytes32(0x0));\r\n        require(_amountPerPlayer > 0);\r\n        ContestPoolDefinition storage definition = definitions[_contestName];\r\n        require(definition.fee == msg.value);\r\n        require(definition.maxBalance > _amountPerPlayer);\r\n\r\n        address manager = msg.sender;\r\n        address newContestPoolAddress = createContestPoolInstance(definition, _name, manager, _amountPerPlayer);\r\n\r\n        emit ContestPoolCreated(\r\n            address(this),\r\n            definition.contestName,\r\n            manager,\r\n            newContestPoolAddress,\r\n            _name,\r\n            _amountPerPlayer);\r\n        return newContestPoolAddress;\r\n    }\r\n\r\n    function deleteContestPool(bytes32 _contestName) public onlySuperUser exists(_contestName) {\r\n        delete definitions[_contestName];\r\n        emit ContestPoolDeleted(address(this),_contestName, now);\r\n    }\r\n\r\n    function disableContestPool(bytes32 _contestName) public onlySuperUser exists(_contestName) isEnabled(_contestName)  {\r\n        definitions[_contestName].enabled = false;\r\n        emit ContestPoolDisabled(address(this),_contestName, now);\r\n    }\r\n\r\n    function enableContestPool(bytes32 _contestName) public onlySuperUser exists(_contestName) isDisabled(_contestName) {\r\n        definitions[_contestName].enabled = true;\r\n        emit ContestPoolEnabled(address(this),_contestName, now);\r\n    }\r\n\r\n    function getOwner() internal view returns (address _owner) {\r\n        return bbStorage.getAddress(keccak256(\"contract.name\", \"owner\"));\r\n    }\r\n\r\n    function getBbVaultAddress() internal view returns (address _owner) {\r\n        return bbStorage.getAddress(keccak256(\"contract.name\", \"bbVault\"));\r\n    }\r\n\r\n    function getBbVault() internal view returns (BbVaultInterface _vault) {\r\n        return BbVaultInterface(getBbVaultAddress());\r\n    }\r\n\r\n    function withdrawFee() public onlySuperUser {\r\n        address _this = address(this);\r\n        require(_this.balance > 0);\r\n        BbVaultInterface bbVault = getBbVault();\r\n        bbVault.deposit.value(_this.balance)();\r\n    }\r\n    function getCurrentTimestamp() public view returns (uint256) {\r\n        return now;\r\n    }\r\n}",
  "sourcePath": "C:\\Guille\\Development\\Repositories\\CoralBytes\\Bitbrackets\\smartcontracts\\contracts\\ContestPoolFactory.sol",
  "compiler": {
    "name": "solc",
    "version": "0.4.21+commit.dfe3193c.Emscripten.clang"
  },
  "schemaVersion": "2.0.0",
  "updatedAt": "2018-05-16T14:33:35.964Z"
}